:020000040800F2
:10000000000002204540000805050008130500080F
:10001000190500081F05000825050008000000005C
:1000200000000000000000000000000095400008F3
:100030002B05000800000000954000083905000865
:10004000954000089540000895400008954000083C
:10005000954000089540000895400008954000082C
:10006000954000089540000895400008954000081C
:10007000954000089540000895400008954000080C
:100080009540000895400008450500089540000887
:1000900095400008954000089540000895400008EC
:1000A000954000086D05000895400008954000083F
:1000B00095400008954000089540000895400008CC
:1000C00095400008954000089540000895400008BC
:1000D0009540000881050008954000089505000836
:1000E000954000089540000895400008954000089C
:1000F000954000089540000895400008954000088C
:10010000954000089540000895400008954000087B
:10011000954000089540000895400008954000086B
:10012000954000089540000895400008954000085B
:10013000954000089540000895400008954000084B
:10014000954000089540000895400008954000083B
:10015000954000089540000895400008954000082B
:10016000954000089540000895400008954000081B
:1001700095400008954000089540000800000000E8
:080180009540000895400008BD
:1001880010B5054C237833B9044B13B10448AFF3C9
:1001980000800123237010BD1C0000200000000017
:1001A800E04000080C4B43B10C480D4910B5AFF3C3
:1001B80000800C48036823B910BD0A48036833B9A6
:1001C8007047094B002BF7D0BDE810401847064B85
:1001D800002BF5D0184700BF00000000E0400008E1
:1001E800200000201C0000200000000053B94AB97C
:1001F800002908BF00281CBF4FF0FF314FF0FF3027
:1002080000F07AB9ADF1080C6DE904CE00F006F8FB
:10021800DDF804E0DDE9022304B070472DE9F0477A
:100228008C460D460446089E002B51D18A4217463B
:100238006DD9B2FA82FEBEF1000F0BD0CEF1200CC0
:1002480001FA0EF520FA0CFC02FA0EF74CEA050C3E
:1002580000FA0EF44FEA174A250CBCFBFAF81FFA0D
:1002680087F90AFB18CC45EA0C4508FB09F3AB42B1
:100278000AD9ED1908F1FF3280F02381AB4240F230
:100288002081A8F102083D44ED1AA4B2B5FBFAF0AA
:100298000AFB105544EA054400FB09F9A14509D9B0
:1002A800E41900F1FF3380F00A81A14540F207818B
:1002B80002383C44A4EB090440EA08400021002E1F
:1002C80061D024FA0EF4002334607360BDE8F0872F
:1002D8008B4207D9002E54D0002186E82100084619
:1002E800BDE8F087B3FA83F1002940F08E80AB4275
:1002F80002D3824200F2FA80841A65EB03050120DA
:10030800AC46002E3FD086E81010BDE8F08712B941
:100318000127B7FBF2F7B7FA87FEBEF1000F34D119
:10032800EB1B3A0C1FFA87FC0121B3FBF2F8250CF2
:1003380002FB183345EA03450CFB08F3AB4207D927
:10034800ED1908F1FF3002D2AB4200F2D1808046AD
:10035800ED1AA3B2B5FBF2F002FB105543EA0544CF
:100368000CFB00FCA44507D9E41900F1FF3302D2C5
:10037800A44500F2B8801846A4EB0C0440EA0840F3
:100388009DE731463046BDE8F087CEF1200405FAF6
:100398000EF307FA0EF720FA04F83A0C25FA04F4DB
:1003A80048EA0308B4FBF2F14FEA184502FB11448E
:1003B8001FFA87FC45EA044501FB0CF3AB4200FA3F
:1003C8000EF409D9ED1901F1FF3080F08A80AB42B3
:1003D80040F2878002393D44EB1A1FFA88F5B3FBD7
:1003E800F2F002FB103345EA034500FB0CF3AB4285
:1003F80007D9ED1900F1FF386FD2AB426DD9023839
:100408003D44EB1A40EA01418FE7C1F1200722FA87
:1004180007F88B4005FA01F448EA030320FA07FEBF
:100428004FEA134CFD404EEA040EB5FBFCF94FEAC7
:100438001E440CFB19551FFA83F844EA054509FBCD
:1004480008F4AC4202FA01F200FA01FA08D9ED18F0
:1004580009F1FF3043D2AC4241D9A9F102091D4448
:100468002D1B1FFA8EFEB5FBFCF00CFB10554EEA57
:10047800054400FB08F8A04507D9E41800F1FF354A
:1004880029D2A04527D902381C4440EA0940A4EBE8
:100498000804A0FB02894C45C6464D4615D312D028
:1004A80056B1BAEB0E0364EB050404FA07F7CB4028
:1004B8001F43CC40376074600021BDE8F0871846C0
:1004C800F8E69046E0E6C245EAD2B8EB020E69EBE0
:1004D80003050138E4E72846D7E7404691E7814617
:1004E800BEE7014678E702383C4445E7084608E796
:1004F800A8F102083D442BE7704700BF80B400AF65
:1005080000BFBD465DF8047B704780B400AFFEE7CE
:1005180080B400AFFEE780B400AFFEE780B400AF60
:10052800FEE780B400AF00BFBD465DF8047B7047AE
:1005380080B500AF01F016FF00BF80BD80B500AFE9
:10054800054803F0FBF9054803F0F8F9044803F0FF
:10055800F5F900BF80BD00BFE00100209801002030
:100568002802002080B500AF024801F0ABF900BFB7
:1005780080BD00BF1C01002080B500AF024802F01A
:1005880051FC00BF80BD00BF7002002080B400AFE6
:1005980000BFBD465DF8047B704780B500AF0320FF
:1005A80001F082FE002200216FF00B0001F087FEAF
:1005B800002200216FF00A0001F081FE00220021D4
:1005C8006FF0090001F07BFE002200216FF00400AB
:1005D80001F075FE002200216FF0030001F06FFEAC
:1005E800002200216FF0010001F069FE00220021C5
:1005F8004FF0FF3001F063FE00BF80BD80B58AB0C8
:1006080000AF78607B681B683C4A934222D1002384
:100618003B613B4A3A4B5B6C43F480735364384B01
:100628005B6C03F480733B613B6960237B6103234C
:10063800BB610023FB6107F114031946314801F03F
:100648007FFB00220021122001F039FE122001F068
:1006580052FE4EE07B681B682B4A934222D100234E
:10066800FB60274A264B5B6C43F400735364244BAE
:100678005B6C03F40073FB60FB6802237B6103235C
:10068800BB610023FB6107F1140319461D4801F003
:1006980057FB00220021122001F011FE122001F068
:1006A8002AFE26E07B681B68184A934221D1002362
:1006B800BB60134A124B5B6C43F480635364104B6A
:1006C8005B6C03F48063BB60BB6804237B6103231A
:1006D800BB610023FB6107F114031946094801F0C7
:1006E8002FFB00220021122001F0E9FD122001F069
:1006F80002FE00BF2837BD4680BD00BF0020014074
:100708000038024000000240002101400022014060
:1007180080B58AB000AF78607B681B682D4A934229
:1007280027D100233B612C4A2B4B5B6C43F0100311
:100738005364294B5B6C03F010033B613B694FF436
:10074800C0637B610223BB610123FB6103233B621E
:1007580007237B6207F114031946204801F0F0FAD9
:1007680000220021252001F0AAFD252001F0C3FD6B
:100778002BE07B681B681A4A934226D10023FB6052
:10078800154A154B1B6C43F480231364124B1B6CE6
:1007980003F48023FB60FB684FF440637B61022312
:1007A800BB610123FB6103233B6207237B6207F1E3
:1007B800140319460B4801F0C3FA00220021272030
:1007C80001F07DFD272001F096FD00BF2837BD46CA
:1007D80080BD00BF00100140003802400000024008
:1007E800004800400004024080B58CB000AF78603B
:1007F8000023FB620023BB6200227968192001F004
:100808005EFD192001F077FD0023FB601F4A1F4B96
:100818005B6C43F0010353641C4B5B6C03F00103F6
:10082800FB60FB6807F1100207F114031146184634
:1008380002F0E0F902F0CAF903465B00FB62FB6ACA
:10084800134AA2FB03239B0C013BBB62114B124AC8
:100858001A60104B40F2E732DA600E4ABB6A536006
:100868000C4B00221A610B4B00229A60094800F0D9
:10087800D9FF0346002B04D1064801F008F80346C7
:1008880000E0012318463037BD4680BD00380240DD
:1008980083DE1B431C01002000000140B0B588B076
:1008A80000AF01F0E9F900F0B5F800F08DFA00F0BA
:1008B80027F900F02DFA00F059FA00F085F900F058
:1008C800D5F94D4B3C1D1D460FCD0FC495E80700CB
:1008D80003C422800234130C23700D233B7000F0F4
:1008E8006DFB00F067FC00F097FD00F015FF00F0CD
:1008F800E5FC00F0A7FC00F0F7FE404B1B78DBB2EC
:100908003F4AA2FB0323DB08DBB23033DBB2BB7305
:100918003A4B1B78DAB23A4BA3FB0213D9080B46C1
:100928009B000B445B00D31ADBB23033DBB23B7461
:10093800344B1B78DBB2324AA2FB0323DB08DBB261
:100948003033DBB2BB742F4B1B78DAB22C4BA3FBD2
:100958000213D9080B469B000B445B00D31ADBB289
:100968003033DBB23B75284B1B78DBB2244AA2FB41
:100978000323DB08DBB23033DBB2BB75224B1B78B9
:10098800DAB21F4BA3FB0213D9080B469B000B449A
:100998005B00D31ADBB23033DBB23B761B4B1B78E0
:1009A800DBB2174AA2FB0323DB08DBB23033DBB22E
:1009B800BB76164B1B78DAB2114BA3FB0213D9088E
:1009C8000B469B000B445B00D31ADBB23033DBB21F
:1009D8003B77391DC8231B220D4802F08AF90220F3
:1009E80001F08CF93946C8230122094802F081F93F
:1009F800022001F083F972E7F84000081500002092
:100A0800CDCCCCCC17000020180000201600002008
:100A18007002002080B594B000AF0023BB60344A58
:100A2800334B1B6C43F080531364314B1B6C03F046
:100A38008053BB60BB6800237B602E4A2D4B1B682C
:100A480043F4804313602B4B1B6803F480437B60A3
:100A58007B6801233B624FF480337B620223BB63D4
:100A68004FF48003FB6308233B644FF4A0737B645B
:100A78000223BB640423FB6407F12003184601F03A
:100A880089FC0346002B03D0E0211B4800F05AFAEA
:100A98000F23FB6002233B6100237B614FF4C053AB
:100AA800BB614FF4A053FB6107F10C030521184605
:100AB80001F0B2FE0346002B03D0EE210E4800F0F1
:100AC80041FA02F063F802460C4BA3FB02239B0990
:100AD800184601F01EFC042001F028FC0022002129
:100AE8004FF0FF3001F0EBFB00BF5037BD4680BD33
:100AF800003802400070004014410008D34D6210D5
:100B080080B584B000AF2C4B2C4A1A602A4B4FF4A6
:100B180040325A60284B00229A60274B01221A6102
:100B2800254B00229A61244B00221A62224B002294
:100B3800DA62214B224A9A621F4B0022DA601E4B6E
:100B48000222DA611C4B00221A631B4B01225A61F4
:100B5800194802F0FFFD0346002B04D040F21311A0
:100B6800184800F0EFF905233B6001237B60072359
:100B7800BB603B461946104803F042F80346002B79
:100B880004D040F21D110F4800F0DCF906233B6049
:100B980002237B603B461946074803F031F80346B9
:100BA800002B04D04FF49371064800F0CBF900BF36
:100BB8001037BD4680BD00BFE00100200020014085
:100BC8000100000F1441000880B584B000AF234B2A
:100BD800234A1A60214B4FF440325A601F4B0022BF
:100BE8009A601E4B00221A611C4B00229A611B4B13
:100BF80000221A62194B0022DA62184B194A9A62CB
:100C0800164B0022DA60154B0122DA61134B0022E1
:100C18001A63124B00225A61104802F09BFD0346EA
:100C2800002B04D040F241110F4800F08BF901234A
:100C38003B6001237B600723BB603B46194607489E
:100C480002F0DEFF0346002B04D040F24B110648A9
:100C580000F078F900BF1037BD4680BD980100202C
:100C6800002101400100000F1441000880B584B044
:100C780000AF234B234A1A60214B4FF440325A608D
:100C88001F4B00229A601E4B00221A611C4B002247
:100C98009A611B4B00221A62194B0022DA62184B28
:100CA800194A9A62164B0022DA60154B0122DA6162
:100CB800134B00221A63124B00225A61104802F0AB
:100CC80049FD0346002B04D04FF4B3710F4800F0E0
:100CD80039F902233B6001237B600723BB603B4655
:100CE8001946074802F08CFF0346002B04D04FF446
:100CF800B871064800F026F900BF1037BD4680BD20
:100D080028020020002201400100000F14410008C1
:100D180080B500AF124B134A1A60114B4FF4E13201
:100D28005A600F4B00229A600D4B0022DA600C4B80
:100D380000221A610A4B0C225A61094B00229A615F
:100D4800074B0022DA61064801F086FF0346002BB4
:100D580004D040F28311044800F0F4F800BF80BDCD
:100D680070020020001001401441000880B500AF57
:100D7800124B134A1A60114B4FF4E1325A600F4B71
:100D880000229A600D4B0022DA600C4B00221A6197
:100D98000A4B0C225A61094B00229A61074B002228
:100DA800DA61064801F058FF0346002B04D04FF4DF
:100DB800CB71044800F0C6F800BF80BD5801002080
:100DC800004800401441000880B58AB000AF0023F5
:100DD8003B614F4A4E4B1B6B43F0100313634C4B64
:100DE8001B6B03F010033B613B690023FB60484A1F
:100DF800474B1B6B43F080031363454B1B6B03F09E
:100E08008003FB60FB680023BB60414A404B1B6BBF
:100E180043F0010313633E4B1B6B03F00103BB60FC
:100E2800BB6800237B603A4A394B1B6B43F00403D1
:100E38001363374B1B6B03F004037B607B68002351
:100E48003B60334A324B1B6B43F002031363304B56
:100E58001B6B03F002033B603B68002248F20F0162
:100E68002C4801F007F9002230212B4801F002F943
:100E780000224FF44071294801F0FCF848F20F03B2
:100E88007B610123BB610023FB6100233B6207F107
:100E9800140319461F4800F053FF30237B610123D8
:100EA800BB610023FB6100233B6207F11403194671
:100EB800194800F045FF4FF460437B610023BB6194
:100EC8000023FB6107F114031946144800F038FFAA
:100ED8004FF470737B610023BB610023FB6107F152
:100EE800140319460C4800F02BFF4FF440737B6144
:100EF8000123BB610023FB6100233B6207F114035C
:100F08001946064800F01CFF00BF2837BD4680BDC3
:100F1800003802400010024000080240000402406D
:100F280080B582B000AF78607B681B68044A934242
:100F380001D100F0C3FE00BF0837BD4680BD00BF29
:100F48000000014080B483B000AF78603960FEE7EC
:100F580080B400AF164A164BD3F8883043F47003B8
:100F6800C2F88830134A134B1B6843F0010313601F
:100F7800104B00229A600F4A0E4B1B6823F08473B3
:100F880023F4803313600B4B0B4A5A60094A094B10
:100F98001B6823F480231360064B0022DA60044B9D
:100FA8004FF000629A6000BFBD465DF8047B704751
:100FB80000ED00E0003802401030002480B500AF9A
:100FC8006C4B1B78052B00F2D38001A252F823F05A
:100FD800F10F000825100008A9100008DD1000080E
:100FE800111100084511000801220221624801F090
:100FF80041F800220121604801F03CF800224FF43A
:1010080000715E4801F036F800224FF480715B48A9
:1010180001F030F85A4B00221A70A9E0584B1B789F
:10102800002B23D1574B1B68574A1360574B1B683B
:10103800574A1360574B1B68574A1360574B1B6836
:10104800574A13604F4B1B68C833564A13604F4BBF
:101058001B68C833544A13604E4B1B68C833534A45
:1010680013604E4B1B68C833514A1360002202219B
:10107800414800F0FFFF012201213F4800F0FAFF3C
:1010880000224FF400713D4800F0F4FF00224FF4B5
:1010980080713A4800F0EEFF394B01221A7067E080
:1010A80001220221344800F0E5FF012201213248E3
:1010B80000F0E0FF00224FF40071304800F0DAFF42
:1010C80000224FF480712D4800F0D4FF2C4B0222EF
:1010D8001A704DE000220221274800F0CBFF0022C1
:1010E8000121254800F0C6FF01224FF40071234872
:1010F80000F0C0FF00224FF48071204800F0BAFFD2
:101108001F4B03221A7033E0012202211A4800F013
:10111800B1FF00220121184800F0ACFF01224FF472
:101128000071164800F0A6FF00224FF480711348A2
:1011380000F0A0FF124B04221A7019E000220221CD
:101148000D4800F097FF012201210B4800F092FFA3
:1011580001224FF40071094800F08CFF00224FF47F
:101168008071064800F086FF054B05221A7000BF03
:1011780000BF80BD3900002000100240000402407A
:1011880038000020040000204C0000200800002047
:10119800500000200C000020540000201000002007
:1011A800580000203C00002040000020440000209F
:1011B8004800002080B582B000AF1D4B1B78002B83
:1011C80031D11C4B01221A7041F2883000F096FD93
:1011D800194B1B78012B1ED1174B00221A702423A0
:1011E8003B71391D64230122144801F082FD4FF43C
:1011F8007A7000F083FD391D642301220F4801F045
:1012080078FD391D642301220C4801F072FD4FF46A
:101218007A7000F073FD00F0ABFA022000F06EFD6A
:10122800074B01221A7000BF0837BD4680BD00BFBA
:10123800380000201400002019000020700200204F
:101248003900002080B500AF124B1B78012B1FD14D
:1012580000F08EFA022000F051FD0F4B1A680F4B78
:101268001B689A4211D80E4B1A680E4B1B689A429B
:101278000BD80D4B1A680D4B1B689A4205D80C4BBE
:101288001A680C4B1B689A4202D90B4B02221A703F
:1012980000BF80BD38000020040000203C00002072
:1012A80008000020400000200C000020440000201E
:1012B80010000020480000203900002080B500AF51
:1012C800464B1B78022B40F08780022000F016FD69
:1012D800434B1A68434B1B689A420CD9424B1B7804
:1012E800DBB219463E4B1A683E4B1B68D31A3F4A7D
:1012F80042F8213007E03C4B1B78DBB219463B4BE8
:10130800002243F821203A4B1A683A4B1B689A424C
:101318000CD9354B1B78DBB21946354B1A68354B5F
:101328001B68D31A344A42F8213007E02E4B1B7849
:10133800DBB21946304B002243F821202F4B1A68A4
:101348002F4B1B689A420CD9274B1B78DBB21946E6
:101358002A4B1A682A4B1B68D31A2A4A42F82130AA
:1013680007E0214B1B78DBB21946264B002243F8D5
:101378002120254B1A68254B1B689A420CD91A4B19
:101388001B78DBB21946204B1A68204B1B68D31A0E
:101398001F4A42F8213007E0134B1B78DBB219468D
:1013A8001B4B002243F821200F4B1B78DBB2013383
:1013B800DAB20D4B1A700C4B1B78DBB2092B05D82F
:1013C80000F0D6F9022000F099FC05E0064B002257
:1013D8001A70104B03221A7000BF80BD380000201D
:1013E800040000204C0000201A01002060000020AA
:1013F8000800002050000020880000200C00002079
:1014080054000020B00000201000002058000020E8
:10141800D80000203900002080B582B000AF9E4B74
:101428001B78032B40F033819C4B00221A609C4BA5
:1014380000221A609B4B00221A609B4B00221A6004
:101448009A4B00221A6000237B6026E0984A7B684A
:1014580052F82320914B1B681344904A1360954A15
:101468007B6852F823208E4B1B6813448C4A136008
:10147800914A7B6852F823208A4B1B681344894A97
:1014880013608E4A7B6852F82320874B1B681344ED
:10149800854A13607B6801337B607B68092BD5DD47
:1014A8007E4B1B68864AA2FB0323DB087B4A13603A
:1014B8007B4B1B68824AA2FB0323DB08784A136034
:1014C800784B1B687E4AA2FB0323DB08754A13602E
:1014D800754B1B687A4AA2FB0323DB08724A136028
:1014E8006E4B1A686E4B1B681A446E4B1B681A4485
:1014F8006D4B1B6813446D4A1360684B1A68684B40
:101508001B681A44674B1B681A44674B1B681344D3
:1015180040F2EE22934233D9604B1B68642202FBEF
:1015280003F2624B1B68B2FBF3F3DAB2654B1A7035
:101538005B4B1B68642202FB03F25C4B1B68B2FB2B
:10154800F3F3DAB2604B1A70564B1B68642202FB45
:1015580003F2564B1B68B2FBF3F3DAB25B4B1A701B
:10156800514B1B68642202FB03F2504B1B68B2FB11
:10157800F3F3DAB2564B1A70564B00221A8011E078
:10158800544B1B8801339AB2524B1A804D4B192287
:101598001A704D4B19221A704D4B19221A704B4B69
:1015A80019221A70474B1B78DBB2632B02D9454BC3
:1015B80063221A70464B1B78DBB2632B02D9444B6B
:1015C80063221A70404B1B78DBB2632B02D93E4B67
:1015D80063221A703D4B1B78DBB2632B02D93B4B5D
:1015E80063221A70384B1B78DBB2232B05D90122F2
:1015F8002021394800F03EFD04E000222021364831
:1016080000F038FD324B1B78DBB2232B05D90122C1
:101618000421324800F02EFD04E0002204212F4866
:1016280000F028FD274B1B78DBB2232B05D90122BC
:1016380008212A4800F01EFD04E00022082127485E
:1016480000F018FD214B1B78DBB2232B05D90122B2
:101658001021214800F00EFD04E0002210211E4850
:1016680000F008FD1B4B1B88B3F5FA7F03D31C4B16
:1016780005221A700BE01B4B1B78DBB2002B03D042
:10168800174B04221A7002E0154B02221A7000BF91
:101698000837BD4680BD00BF38000020000100208B
:1016A80004010020080100200C0100201001002086
:1016B8006000002088000020B0000020D800002032
:1016C800CDCCCCCC1600002018000020170000203C
:1016D80015000020180100200008024000100240F8
:1016E800390000201400002080B400AF074B1B789D
:1016F800042B05D1064B00221A60064B02221A70F1
:1017080000BFBD465DF8047B704700BF380000206D
:10171800140100203900002080B500AF0F4B1B7862
:10172800052B19D10E4B00221A80002210210D48DA
:1017380000F0A0FC002204210B4800F09BFC0022D2
:101748002021084800F096FC00220821064800F0F5
:1017580091FC064B00221A7000BF80BD38000020A3
:101768001801002000080240001002403900002043
:1017780080B500AF054802F031F8054802F02EF8B0
:10178800044802F02BF800BF80BD00BF980100207C
:1017980028020020E001002080B582B000AF786008
:1017A8007B681B68164A934226D1164B1B78DBB21E
:1017B800002B0CD0144802F002FA0246134B1A60B0
:1017C800104B00221A70104802F008F814E00E4876
:1017D80002F0F5F902460E4B1A600A4B01221A7004
:1017E8000C4802F0ECF902460B4B1A600B4802F069
:1017F800E6F902460A4B1A6000BF0837BD4680BDAD
:10180800002001405C000020E001002004000020CE
:1018180008000020980100200C0000202802002069
:101828001000002080B582B000AF78607B68002B84
:1018380001D101231DE07B6893F83930DBB2002B1E
:1018480006D17B68002283F83820786800F015F804
:101858007B68022283F839207B681A687B68043326
:101868001946104600F05EF97B68012283F839209A
:10187800002318460837BD4680BD80B483B000AF4A
:10188800786000BF0C37BD465DF8047B704780B4B4
:1018980083B000AF78607B681B687A681268D2688A
:1018A80042F00102DA607B681B687A681268126885
:1018B80042F001021A60002318460C37BD465DF855
:1018C800047B704780B582B000AF78607B681B6886
:1018D8001B6903F00203022B22D17B681B68DB68BB
:1018E80003F00203022B1BD17B681B686FF0020216
:1018F8001A617B6801221A767B681B689B6903F072
:101908000303002B03D0786800F0EEF805E0786850
:1019180000F0E0F8786800F0F1F87B6800221A76A9
:101928007B681B681B6903F00403042B22D17B68C6
:101938001B68DB6803F00403042B1BD17B681B685E
:101948006FF004021A617B6802221A767B681B68B2
:101958009B6903F44073002B03D0786800F0C4F847
:1019680005E0786800F0B6F8786800F0C7F87B689A
:1019780000221A767B681B681B6903F00803082B92
:1019880022D17B681B68DB6803F00803082B1BD196
:101998007B681B686FF008021A617B6804221A765C
:1019A8007B681B68DB6903F00303002B03D07868AE
:1019B80000F09AF805E0786800F08CF8786800F094
:1019C8009DF87B6800221A767B681B681B6903F008
:1019D8001003102B22D17B681B68DB6803F010030F
:1019E800102B1BD17B681B686FF010021A617B6893
:1019F80008221A767B681B68DB6903F44073002BA6
:101A080003D0786800F070F805E0786800F062F8B4
:101A1800786800F073F87B6800221A767B681B6888
:101A28001B6903F00103012B0ED17B681B68DB687F
:101A380003F00103012B07D17B681B686FF00102DB
:101A48001A617868FFF76CFA7B681B681B6903F0FA
:101A58008003802B0ED17B681B68DB6803F0800352
:101A6800802B07D17B681B686FF080021A61786849
:101A780000F045FB7B681B681B6903F04003402BA3
:101A88000ED17B681B68DB6803F04003402B07D14D
:101A98007B681B686FF040021A61786800F038F8BC
:101AA8007B681B681B6903F02003202B0ED17B6821
:101AB8001B68DB6803F02003202B07D17B681B68B9
:101AC8006FF020021A61786800F00FFB00BF08373A
:101AD800BD4680BD80B483B000AF786000BF0C37CE
:101AE800BD465DF8047B704780B483B000AF786072
:101AF80000BF0C37BD465DF8047B704780B483B0E7
:101B080000AF786000BF0C37BD465DF8047B7047B6
:101B180080B483B000AF786000BF0C37BD465DF875
:101B2800047B704780B485B000AF786039600023CB
:101B3800FB607B681B68FB607B68444A934213D058
:101B48007B68B3F1804F0FD07B68414A93420BD03A
:101B58007B68404A934207D07B683F4A934203D050
:101B68007B683E4A934201D1012300E00023002B09
:101B780008D0FB6823F07003FB603B685B68FA6879
:101B88001343FB607B68314A93422BD07B68B3F1E7
:101B9800804F27D07B682E4A934223D07B682D4AFA
:101BA80093421FD07B682C4A93421BD07B682B4AF8
:101BB800934217D07B682A4A934213D07B68294AFC
:101BC80093420FD07B68284A93420BD07B68274A00
:101BD800934207D07B68264A934203D07B68254A04
:101BE800934201D1012300E00023002B08D0FB68B9
:101BF80023F44073FB603B68DB68FA681343FB60BF
:101C08007B68FA681A603B689A687B68DA623B68A6
:101C18001A687B689A627B680C4A934203D07B6897
:101C28000E4A934201D1012300E00023002B03D088
:101C38003B681A697B681A637B6801225A6100BF96
:101C48001437BD465DF8047B704700BF00000140B3
:101C58000004004000080040000C0040000401405F
:101C68000040014000440140004801400018004085
:101C7800001C00400020004080B500AF0E4A0E4B0B
:101C88001B6843F4007313600B4A0B4B1B6843F447
:101C980080631360084A084B1B6843F48073136021
:101CA800032000F001FB0020FEF79EFDFEF775FC07
:101CB8000023184680BD00BF003C024080B400AF3E
:101CC800064B1B781A46064B1B681344044A1360DC
:101CD80000BFBD465DF8047B704700BF1A000020B6
:101CE800B002002080B400AF034B1B681846BD4605
:101CF8005DF8047B704700BFB002002080B584B057
:101D080000AF7860FFF7EEFFB8607B68FB60FB68A8
:101D1800B3F1FF3F05D0094B1B781A46FB68134403
:101D2800FB6000BFFFF7DEFF0246BB68D21AFB6804
:101D38009A42F7D300BF1037BD4680BD1A00002075
:101D480080B489B000AF7860396000237B610023DC
:101D58003B610023BB610023FB616BE10122FB694E
:101D680002FA03F37B613B681A687B6913403B61A5
:101D78003A697B699A4240F05A813B685B68022B5A
:101D880003D03B685B68122B23D1FB69DA087B68B8
:101D9800083253F82230BB61FB6903F007039B004C
:101DA8000F2202FA03F3DB43BA691340BB613B68B5
:101DB8001A69FB6903F007039B0002FA03F3BA6987
:101DC8001343BB61FB69DA087B680832B96943F8D9
:101DD80022107B681B68BB61FB695B00032202FA67
:101DE80003F3DB43BA691340BB613B685B6803F0EC
:101DF8000302FB695B0002FA03F3BA691343BB6190
:101E08007B68BA691A603B685B68012B0BD03B683A
:101E18005B68022B07D03B685B68112B03D03B68DB
:101E28005B68122B30D17B689B68BB61FB695B00E8
:101E3800032202FA03F3DB43BA691340BB613B6830
:101E4800DA68FB695B0002FA03F3BA691343BB6102
:101E58007B68BA699A607B685B68BB610122FB6931
:101E680002FA03F3DB43BA691340BB613B685B6862
:101E78001B0903F00102FB6902FA03F3BA69134371
:101E8800BB617B68BA695A607B68DB68BB61FB69C8
:101E98005B00032202FA03F3DB43BA691340BB6118
:101EA8003B689A68FB695B0002FA03F3BA6913435B
:101EB800BB617B68BA69DA603B685B6803F0805392
:101EC800002B00F0B4800023FB605F4A5E4B5B6C24
:101ED80043F4804353645C4B5B6C03F48043FB60C6
:101EE800FB685A4AFB699B08023352F82330BB61EE
:101EF800FB6903F003039B000F2202FA03F3DB43A1
:101F0800BA691340BB617B68514A93422BD07B6806
:101F1800504A934225D07B684F4A93421FD07B6832
:101F28004E4A934219D07B684D4A934213D07B683E
:101F38004C4A93420DD07B684B4A934207D07B684A
:101F48004A4A934201D107230EE008230CE00623F6
:101F58000AE0052308E0042306E0032304E0022343
:101F680002E0012300E00023FA6902F00302920074
:101F78009340BA691343BB613449FB699B08023338
:101F8800BA6941F823203A4B1B68BB613B69DB43C4
:101F9800BA691340BB613B685B6803F48033002B6C
:101FA80003D0BA693B691343BB61314ABB6913600B
:101FB8002F4B5B68BB613B69DB43BA691340BB616C
:101FC8003B685B6803F40033002B03D0BA693B69B4
:101FD8001343BB61264ABB695360254B9B68BB61B1
:101FE8003B69DB43BA691340BB613B685B6803F438
:101FF8008013002B03D0BA693B691343BB611C4AA9
:10200800BB6993601A4BDB68BB613B69DB43BA6908
:102018001340BB613B685B6803F40013002B03D0DB
:10202800BA693B691343BB61114ABB69D360FB6959
:102038000133FB61FB690F2B7FF690AE00BF24379D
:10204800BD465DF8047B7047003802400038014007
:10205800000002400004024000080240000C024058
:10206800001002400014024000180240001C024008
:10207800003C014080B483B000AF78600B467B80A1
:1020880013467B707B78002B03D07A887B689A6133
:1020980003E07B881A047B689A6100BF0C37BD4651
:1020A8005DF8047B704780B483B000AF78607B68CC
:1020B80093F83530DBB2022B04D07B6880225A6556
:1020C80001230CE07B68052283F835207B681B68B8
:1020D8007A681268126822F001021A600023184612
:1020E8000C37BD465DF8047B704780B483B000AF01
:1020F800786000BF0C37BD465DF8047B704780B43C
:1021080083B000AF786000BF0C37BD465DF8047B34
:102118007047000080B485B000AF78607B6803F03A
:102128000703FB600C4BDB68BB60BA684FF6FF0324
:102138001340BB60FB681A02BB68134343F0BF63DC
:1021480043F40033BB60044ABB68D36000BF143754
:10215800BD465DF8047B704700ED00E080B400AF39
:10216800044BDB681B0A03F007031846BD465DF8FD
:10217800047B704700ED00E080B483B000AF0346F5
:10218800FB71094997F907305B09FA7902F01F02D8
:10219800012000FA02F241F8232000BF0C37BD46A7
:1021A8005DF8047B704700BF00E100E080B483B0B5
:1021B80000AF03463960FB7197F90730002B0BDA43
:1021C8000D49FB7903F00F03043B3A68D2B21201C0
:1021D800D2B20B441A7609E0084997F907303A68F1
:1021E800D2B21201D2B20B4483F8002300BF0C37DD
:1021F800BD465DF8047B704700ED00E000E100E0BB
:1022080080B489B000AFF860B9607A60FB6803F009
:102218000703FB61FB69C3F10703042B28BF0423F1
:10222800BB61FB690433062B02D9FB69033B00E061
:1022380000237B610122BB6902FA03F35A1EBB68C3
:102248001A407B699A4001217B6901FA03F3591E00
:102258007B680B40134318462437BD465DF8047B62
:102268007047000080B582B000AF78607B68013BA2
:10227800B3F1807F01D301230FE00A4A7B68013B59
:1022880053600F214FF0FF30FFF790FF054B0022FE
:102298009A60044B07221A60002318460837BD4687
:1022A80080BD00BF10E000E080B582B000AF78606C
:1022B8007868FFF72FFF00BF0837BD4680BD80B59F
:1022C80086B000AF0346B9607A60FB7300237B6178
:1022D800FFF744FF78617A68B9687869FFF790FF7B
:1022E800024697F90F3011461846FFF75FFF00BF07
:1022F8001837BD4680BD80B582B000AF0346FB717C
:1023080097F907301846FFF737FF00BF0837BD4673
:1023180080BD80B582B000AF78607868FFF7A2FF13
:10232800034618460837BD4680BD000080B483B018
:1023380000AF78607B68042B06D1094A084B1B68FC
:1023480043F00403136005E0054A054B1B6823F0BE
:102358000403136000BF0C37BD465DF8047B70476B
:1023680010E000E080B500AF00F002F800BF80BDCB
:1023780080B400AF00BFBD465DF8047B704780B4F1
:1023880083B000AF786000BF0C37BD465DF8047BB2
:102398007047000080B586B000AF78607B68002B7E
:1023A80001D101232DE27B681B6803F00103002B98
:1023B80075D0A34B9B6803F00C03042B0CD0A04BE7
:1023C8009B6803F00C03082B12D19D4B5B6803F448
:1023D8008003B3F5800F0BD1994B1B6803F40033CE
:1023E800002B5BD07B685B68002B57D1012308E288
:1023F8007B685B68B3F5803F06D1914A904B1B68B8
:1024080043F4803313601DE07B685B68B3F5A02F4D
:102418000CD18B4A8A4B1B6843F480231360884A8B
:10242800874B1B6843F4803313600BE0844A844B6A
:102438001B6823F480331360814A814B1B6823F4A3
:10244800802313607B685B68002B13D0FFF74AFC7E
:10245800386108E0FFF746FC02463B69D31A642B53
:1024680001D90323CDE1764B1B6803F40033002B1D
:10247800F0D014E0FFF736FC386108E0FFF732FCD3
:1024880002463B69D31A642B01D90323B9E16C4B8B
:102498001B6803F40033002BF0D100E000BF7B6819
:1024A8001B6803F00203002B63D0654B9B6803F0A5
:1024B8000C03002B0BD0624B9B6803F00C03082B1A
:1024C8001CD15F4B5B6803F48003002B16D15C4B77
:1024D8001B6803F00203002B05D07B68DB68012B27
:1024E80001D001238DE15649554B1B6823F0F802B2
:1024F8007B681B69DB0013430B603AE07B68DB6891
:10250800002B20D04F4B01221A60FFF7EBFB3861FC
:1025180008E0FFF7E7FB02463B69D31A022B01D913
:1025280003236EE1464B1B6803F00203002BF0D037
:102538004349434B1B6823F0F8027B681B69DB00A7
:1025480013430B6015E03F4B00221A60FFF7CAFBEC
:10255800386108E0FFF7C6FB02463B69D31A022B35
:1025680001D903234DE1364B1B6803F00203002B0E
:10257800F0D17B681B6803F00803002B30D07B6820
:102588005B69002B16D0304B01221A60FFF7AAFBBB
:10259800386108E0FFF7A6FB02463B69D31A022B15
:1025A80001D903232DE1264B5B6F03F00203002BB7
:1025B800F0D015E0244B00221A60FFF793FB386136
:1025C80008E0FFF78FFB02463B69D31A022B01D9BB
:1025D800032316E11A4B5B6F03F00203002BF0D1C3
:1025E8007B681B6803F00403002B00F0A080002325
:1025F800FB75134B1B6C03F08053002B0FD100238A
:10260800FB600F4A0E4B1B6C43F0805313640C4B5A
:102618001B6C03F08053FB60FB680123FB750B4BBD
:102628001B6803F48073002B21D1084A074B1B68F1
:1026380043F480731360FFF755FB386111E000BF66
:102648000038024000004742800E474200700040B8
:10265800FFF748FB02463B69D31A022B01D9032333
:10266800CFE06A4B1B6803F48073002BF0D07B68C3
:102678009B68012B06D1664A654B1B6F43F001032B
:1026880013671CE07B689B68052B0CD1604A604B84
:102698001B6F43F0040313675D4A5D4B1B6F43F0E8
:1026A800010313670BE05A4A594B1B6F23F00103D0
:1026B8001367574A564B1B6F23F0040313677B6855
:1026C8009B68002B15D0FFF70DFB38610AE0FFF778
:1026D80009FB02463B69D31A41F28832934201D979
:1026E80003238EE04A4B1B6F03F00203002BEED04E
:1026F80014E0FFF7F7FA38610AE0FFF7F3FA024649
:102708003B69D31A41F28832934201D9032378E016
:102718003F4B1B6F03F00203002BEED1FB7D012B17
:1027280005D13B4A3A4B1B6C23F0805313647B68FA
:102738009B69002B64D0364B9B6803F00C03082B75
:102748005CD07B689B69022B41D1324B00221A6016
:10275800FFF7C8FA386108E0FFF7C4FA02463B6998
:10276800D31A022B01D903234BE0294B1B6803F032
:102778000073002BF0D126497B68DA697B681B6AF5
:102788001A437B685B6A9B011A437B689B6A5B08F8
:10279800013B1B041A437B68DB6A1B0613434B602F
:1027A8001C4B01221A60FFF79DFA386108E0FFF719
:1027B80099FA02463B69D31A022B01D9032320E078
:1027C800134B1B6803F00073002BF0D018E0114B7B
:1027D80000221A60FFF786FA386108E0FFF782FAEC
:1027E80002463B69D31A022B01D9032309E0084B9F
:1027F8001B6803F00073002BF0D101E0012300E017
:10280800002318461837BD4680BD00BF0070004041
:10281800003802406000474280B584B000AF78605D
:1028280039607B68002B01D10123CAE0674B1B6824
:1028380003F00F023B689A420CD2644B3A68D2B25A
:102848001A70624B1B6803F00F023B689A4201D072
:102858000123B6E07B681B6803F00203002B20D03D
:102868007B681B6803F00403002B05D0584A584BBB
:102878009B6843F4E05393607B681B6803F008038C
:10288800002B05D0524A524B9B6843F46043936037
:102898004F494F4B9B6823F0F0027B689B681343BA
:1028A8008B607B681B6803F00103002B44D07B68B6
:1028B8005B68012B07D1464B1B6803F40033002BE0
:1028C80019D101237DE07B685B68022B03D07B680C
:1028D8005B68032B07D13E4B1B6803F00073002B8A
:1028E80009D101236DE03A4B1B6803F00203002B6A
:1028F80001D1012365E03649354B9B6823F003027B
:102908007B685B6813438B60FFF7ECF9F8600AE0BB
:10291800FFF7E8F90246FB68D31A41F2883293427E
:1029280001D903234DE02A4B9B6803F00C027B6816
:102938005B689B009A42EBD1244B1B6803F00F02A3
:102948003B689A420CD9214B3A68D2B21A701F4B95
:102958001B6803F00F023B689A4201D0012330E064
:102968007B681B6803F00403002B08D01849184B38
:102978009B6823F4E0527B68DB6813438B607B68B9
:102988001B6803F00803002B09D01149104B9B6802
:1029980023F460427B681B69DB0013438B6000F003
:1029A8001DF801460A4B9B681B0903F00F03094AEF
:1029B800D35C21FA03F3084A13600020FDF714FFE3
:1029C800002318461037BD4680BD00BF003C0240BA
:1029D8000038024020410008000000202DE9F04F97
:1029E8008FB000AF0023FB6200237B630023BB6230
:1029F80000233B63624B9B6803F00C03042B07D056
:102A0800082B08D0002B40F0B2805E4B3B63B1E04E
:102A18005D4B3B63AEE05A4B5B6803F03F03FB62E0
:102A2800574B5B6803F48003002B4ED0544B5B6814
:102A38009B094FF0000440F2FF114FF0000201EA39
:102A4800030102EA04020B46144660017862786AC0
:102A580040EAD36078625B013B62D7E908345B1ACD
:102A680064EB02044FEA841949EA93694FEA831830
:102A7800B8EB030869EB04094FEAC903FB61FB697A
:102A880043EA5873FB614FEAC803BB61D7E906897B
:102A980018EB010849EB02094FEA49237B617B697E
:102AA80043EAD8537B614FEA48233B61D7E904895D
:102AB80040464946FB6A4FF000041A462346FDF794
:102AC80095FB03460C467B6343E02D4B5B689B09F3
:102AD8004FF0000440F2FF114FF0000201EA030139
:102AE80002EA04020B4614466001F860F86840EAFE
:102AF800D360F8605B01BB60D7E902345B1A64EB12
:102B08000204A60146EA93669D01ED1A66EB0406E7
:102B1800F3007B607B6843EA55737B60EB003B60A6
:102B2800D7E900566D1846EB02064FEA862B4BEAAA
:102B3800955B4FEA852A55465E4628463146FB6A2C
:102B48004FF000041A462346FDF750FB03460C4697
:102B58007B630B4B5B681B0C03F0030301335B00C7
:102B6800BB627A6BBB6AB2FBF3F33B6302E0054BD3
:102B78003B6300BF3B6B18463C37BD46BDE8F08F52
:102B8800003802400024F40000127A0080B400AF3C
:102B9800034B1B681846BD465DF8047B704700BFB1
:102BA8000000002080B500AFFFF7F0FF0146054B9D
:102BB8009B689B0A03F00703034AD35C21FA03F3DB
:102BC800184680BD003802403041000880B500AF8B
:102BD800FFF7DCFF0146054B9B685B0B03F007031F
:102BE800034AD35C21FA03F3184680BD003802403B
:102BF8003041000880B483B000AF786039607B68EA
:102C08000F221A60124B9B6803F003027B685A601C
:102C18000F4B9B6803F0F0027B689A600C4B9B6833
:102C280003F4E0527B68DA60094B9B68DB0803F425
:102C3800E0527B681A61074B1B6803F00F023B6880
:102C48001A6000BF0C37BD465DF8047B704700BFB3
:102C580000380240003C024080B582B000AF786086
:102C68007B68002B01D101233FE07B6893F8393062
:102C7800DBB2002B06D17B68002283F83820786805
:102C8800FDF746FD7B68242283F839207B681B68A2
:102C98007A681268D26822F40052DA60786800F024
:102CA8003DFB7B681B687A681268126922F49042BF
:102CB8001A617B681B687A681268526922F02A02D6
:102CC8005A617B681B687A681268D26842F40052BD
:102CD800DA607B680022DA637B68202283F8392077
:102CE8007B68202283F83A20002318460837BD461F
:102CF80080BD80B588B002AFF860B9603B6013460C
:102D0800FB8000237B61FB6893F83930DBB2202B12
:102D180040F08280BB68002B02D0FB88002B01D1D9
:102D280001237AE0FB6893F83830012B01D10223A4
:102D380073E0FB68012283F83820FB680022DA631D
:102D4800FB68212283F83920FEF7CCFF7861FB6805
:102D5800FA889A84FB68FA88DA8441E0FB68DB8C9D
:102D68009BB2013B9AB2FB68DA84FB689B68B3F5B7
:102D7800805F21D13B6800937B6900228021F8683D
:102D880000F06AF90346002B01D0032345E0BB6835
:102D98003B61FB681B683A691288C2F308025A60F3
:102DA800FB681B69002B03D1BB680233BB6017E0CB
:102DB800BB680133BB6013E03B6800937B6900226A
:102DC8008021F86800F048F90346002B01D003235E
:102DD80023E0FB681A68BB68591CB9601B7853600C
:102DE800FB68DB8C9BB2002BB8D13B6800937B69F6
:102DF80000224021F86800F02FF90346002B01D08B
:102E080003230AE0FB68202283F83920FB680022AC
:102E180083F83820002300E0022318461837BD46FF
:102E280080BD000080B588B000AF78607B681B6803
:102E38001B68FB617B681B68DB68BB617B681B6880
:102E48005B697B6100233B610023FB60FB6903F046
:102E58000F033B613B69002B0DD1FB6903F0200395
:102E6800002B08D0BB6903F02003002B03D078683F
:102E780000F0DBF9CCE03B69002B00F0AB807B690C
:102E880003F00103002B05D1BB6903F49073002BF9
:102E980000F0A080FB6903F00103002B0AD0BB6996
:102EA80003F48073002B05D07B68DB6B43F00102D1
:102EB8007B68DA63FB6903F00403002B0AD07B69A3
:102EC80003F00103002B05D07B68DB6B43F00202A3
:102ED8007B68DA63FB6903F00203002B0AD07B6985
:102EE80003F00103002B05D07B68DB6B43F0040281
:102EF8007B68DA63FB6903F00803002B0AD07B695F
:102F080003F00103002B05D07B68DB6B43F008025C
:102F18007B68DA637B68DB6B002B78D0FB6903F096
:102F28002003002B07D0BB6903F02003002B02D03D
:102F3800786800F07AF97B681B685B6903F04003E6
:102F4800002B14BF01230023DBB2FB607B68DB6B23
:102F580003F00803002B02D1FB68002B31D07868FE
:102F680000F0C4F87B681B685B6903F04003002B22
:102F780023D07B681B687A681268526922F0400285
:102F88005A617B685B6B002B13D07B685B6B224AB2
:102F98001A657B685B6B1846FFF785F80346002BBC
:102FA80016D07B685B6B1B6D7A68526B104698472E
:102FB8000EE0786800F046F80AE0786800F042F819
:102FC80006E0786800F03EF87B680022DA631EE0CD
:102FD80000BF1CE0FB6903F08003002B08D0BB692D
:102FE80003F08003002B03D0786800F0B1F80FE0FD
:102FF800FB6903F04003002B0AD0BB6903F04003D0
:10300800002B05D0786800F0F8F800BF00E000BF9A
:103018002037BD4680BD00BF3131000880B483B081
:1030280000AF786000BF0C37BD465DF8047B704781
:1030380080B483B000AF786000BF0C37BD465DF840
:10304800047B704780B483B000AF786000BF0C3752
:10305800BD465DF8047B704780B584B000AFF8606A
:10306800B9603B601346FB712CE0BB69B3F1FF3FCD
:1030780028D0BB69002B07D0FEF734FE02463B6818
:10308800D21ABB699A421DD9FB681B68FA68126894
:10309800D26822F4D072DA60FB681B68FA6812689A
:1030A800526922F001025A61FB68202283F8392014
:1030B800FB68202283F83A20FB68002283F8382036
:1030C80003230FE0FB681B681A68BB681A40BB68DB
:1030D8009A420CBF01230023DBB21A46FB799A42BD
:1030E800C3D0002318461037BD4680BD80B483B0D6
:1030F80000AF78607B681B687A681268D26822F42F
:103108009072DA607B681B687A681268526922F0EC
:1031180001025A617B68202283F83A2000BF0C37ED
:10312800BD465DF8047B704780B584B000AF786019
:103138007B689B6BFB60FB680022DA85FB680022DA
:10314800DA84F868FFF77EFF00BF1037BD4680BD00
:1031580080B485B000AF78607B6893F83930DBB213
:10316800212B43D17B689B68B3F5805F19D17B68BD
:103178001B6AFB607B681B68FA681288C2F3080246
:103188005A607B681B69002B05D17B681B6A9A1CF7
:103198007B681A620EE07B681B6A5A1C7B681A629D
:1031A80008E07B681A687B681B6A581C79680862A3
:1031B8001B7853607B68DB8C9BB2013B9BB27A68BF
:1031C8001946D184002B0FD17B681B687A68126876
:1031D800D26822F08002DA607B681B687A6812681D
:1031E800D26842F04002DA60002300E00223184669
:1031F8001437BD465DF8047B704780B582B000AFD8
:1032080078607B681B687A681268D26822F040028E
:10321800DA607B68202283F839207868FFF7FEFEA1
:10322800002318460837BD4680BD80B584B000AF7E
:1032380078607B6893F83A30DBB2222B69D17B68DF
:103248009B68B3F5805F23D17B689B6AFB607B68D2
:103258001B69002B0ED17B681B685B689BB2C3F3AC
:1032680008039AB2FB681A807B689B6A9A1C7B6881
:103278009A6229E07B681B685B689BB2DBB29AB2F2
:10328800FB681A807B689B6A5A1C7B689A621BE001
:103298007B681B69002B0AD17B689B6A591C7A687A
:1032A80091627A6812685268D2B21A700CE07B6830
:1032B8009B6A591C7A6891627A6812685268D2B21D
:1032C80002F07F02D2B21A707B68DB8D9BB2013BA1
:1032D8009BB27A681946D185002B18D17B681B6888
:1032E8007A681268D26822F49072DA607B681B6888
:1032F8007A681268526922F001025A617B682022BA
:1033080083F83A207868FFF793FE002302E0002351
:1033180000E0022318461037BD4680BDF0B585B0E1
:1033280000AF78600023FB607B681B681B69FB604B
:10333800FB6823F44053FB607B68DB68FA6813433F
:10334800FB607B681B68FA681A617B681B68DB682E
:10335800FB60FB6823F4164323F00C03FB607B68D7
:103368009A687B681B691A437B685B691A437B68A8
:10337800DB691343FA681343FB607B681B68FA68D0
:10338800DA607B681B685B69FB60FB6823F4407349
:10339800FB607B689B69FA681343FB607B681B686A
:1033A800FA685A617B68DB69B3F5004F40F0E48046
:1033B8007B681B68AB4A934204D07B681B68AA4AA7
:1033C80093426CD17B681C68FFF700FC02461346E9
:1033D8009B0013449A001A447B685B685B00B2FB4D
:1033E800F3F3A24AA2FB03235B091D01FFF7EEFBDF
:1033F800024613469B0013449A001A447B685B6894
:103408005B00B2FBF3F6FFF7E1FB024613469B00B5
:1034180013449A001A447B685B685B00B2FBF3F3C1
:10342800924AA2FB03235B09642202FB03F3F31A0B
:10343800DB0032338D4AA2FB03235B095B0003F4F4
:10344800F8731D44FFF7C2FB024613469B00134462
:103458009A001A447B685B685B00B2FBF3F6FFF7DF
:10346800B5FB024613469B0013449A001A447B6836
:103478005B685B00B2FBF3F37C4AA2FB03235B09A6
:10348800642202FB03F3F31ADB003233774AA2FB10
:1034980003235B0903F007032B44A36054E17B6813
:1034A8001C68FFF77FFB024613469B0013449A00F3
:1034B8001A447B685B685B00B2FBF3F36B4AA2FBC0
:1034C80003235B091D01FFF76DFB024613469B00B2
:1034D80013449A001A447B685B685B00B2FBF3F6FE
:1034E800FFF760FB024613469B0013449A001A44F8
:1034F8007B685B685B00B2FBF3F35C4AA2FB0323C7
:103508005B09642202FB03F3F31ADB003233574AE8
:10351800A2FB03235B095B0003F4F8731D44FFF768
:1035280041FB024613469B0013449A001A447B68E9
:103538005B685B00B2FBF3F6FFF734FB0246134609
:103548009B0013449A001A447B685B685B00B2FBDB
:10355800F3F3464AA2FB03235B09642202FB03F34D
:10356800F31ADB003233414AA2FB03235B0903F061
:1035780007032B44A360E7E07B681B68394A934242
:1035880004D07B681B68384A934271D17B681C68F9
:10359800FFF71CFB024613469B0013449A001A448B
:1035A8007B685B689B00B2FBF3F3304AA2FB032302
:1035B8005B091D01FFF70AFB024613469B001344F3
:1035C8009A001A447B685B689B00B2FBF3F6FFF72E
:1035D800FDFA024613469B0013449A001A447B687E
:1035E8005B689B00B2FBF3F3204AA2FB03235B0951
:1035F800642202FB03F3F31A1B0132331B4AA2FBBA
:1036080003235B0903F0F0031D44FFF7DFFA0246CA
:1036180013469B0013449A001A447B685B689B001E
:10362800B2FBF3F6FFF7D2FA024613469B001344A7
:103638009A001A447B685B689B00B2FBF3F30B4A61
:10364800A2FB03235B09642202FB03F3F31A1B01A9
:103658003233064AA2FB03235B0903F00F032B4412
:10366800A36071E000100140001401401F85EB5178
:103678007B681C68FFF796FA024613469B001344C2
:103688009A001A447B685B689B00B2FBF3F3304AEC
:10369800A2FB03235B091D01FFF784FA02461346C8
:1036A8009B0013449A001A447B685B689B00B2FB3A
:1036B800F3F6FFF777FA024613469B0013449A0085
:1036C8001A447B685B689B00B2FBF3F3204AA2FBB9
:1036D80003235B09642202FB03F3F31A1B01323351
:1036E8001B4AA2FB03235B0903F0F0031D44FFF709
:1036F80059FA024613469B0013449A001A447B6801
:103708005B689B00B2FBF3F6FFF74CFA02461346E0
:103718009B0013449A001A447B685B689B00B2FBC9
:10372800F3F30B4AA2FB03235B09642202FB03F3B6
:10373800F31A1B013233064AA2FB03235B0903F089
:103748000F032B44A360FFE700BF1437BD46F0BD4D
:103758001F85EB5180B584B000AF78600023FB7300
:103768007B68002B01D1012333E07B681B6C002BA5
:1037780009D17B6800225A647B68002283F83C20C8
:103788007868FCF73BFF7B681B6C03F01003002B89
:1037980018D17B681B6C23F4885323F0020343F091
:1037A80002027B681A64786800F04EFB7B6800228E
:1037B8005A647B681B6C23F0030343F001027B68A7
:1037C8001A6401E00123FB737B68002283F83C2024
:1037D800FB7B18461037BD4680BD000080B485B01D
:1037E80000AF78600023BB607B6893F83C30012B06
:1037F80001D1022393E07B68012283F83C207B6897
:103808001B689B6803F00103012B18D07B681B68B9
:103818007A681268926842F001029A60434B1B680A
:10382800434AA2FB03239A0C13465B001344BB6074
:1038380002E0BB68013BBB60BB68002BF9D17B6829
:103848001B689B6803F00103002B67D07B681B6C27
:1038580023F4E06323F0010343F480727B681A6465
:103868007B681B685B6803F48063002B07D07B6868
:103878001B6C23F4405343F480527B681A647B68C2
:103888001B6C03F48053002B06D07B685B6C23F021
:1038980006027B685A6402E07B6800225A647B68EF
:1038A800002283F83C20234BFB607B681B686FF089
:1038B80022021A607B681A687B681B685B6843F0A1
:1038C800806343F020035360FB685B6803F01F03C9
:1038D800002B0FD17B681B689B6803F04053002BBB
:1038E8001CD17B681B687A681268926842F0804233
:1038F8009A6013E07B681B680F4A93420ED17B687D
:103908001B689B6803F04053002B07D17B681B683A
:103918007A681268926842F080429A6000231846DA
:103928001437BD465DF8047B704700BF00000020D7
:1039380083DE1B43002301400020014080B584B092
:1039480000AF78600023FB600023BB607B681B68C6
:103958001B6803F00203022B0CBF01230023DBB218
:10396800FB607B681B685B6803F02003202B0CBF9F
:1039780001230023DBB2BB60FB68002B49D0BB6886
:10398800002B46D07B681B6C03F01003002B05D17D
:103998007B681B6C43F400727B681A647B681B6845
:1039A8009B6803F04053002B2BD17B689B69002B4D
:1039B80027D17B681B68DB6A03F47003002B06D0F1
:1039C8007B681B689B6803F48063002B19D17B68B4
:1039D8001B687A681268526822F020025A607B6875
:1039E8001B6C23F480727B681A647B681B6C03F47D
:1039F8008053002B05D17B681B6C43F001027B6868
:103A08001A647868FDF7C8FE7B681B686FF01202BD
:103A18001A607B681B681B6803F00403042B0CBF47
:103A280001230023DBB2FB607B681B685B6803F043
:103A38008003802B0CBF01230023DBB2BB60FB6833
:103A4800002B57D0BB68002B54D07B681B6C03F04D
:103A58001003002B05D17B681B6C43F400527B6874
:103A68001A647B681B689B6803F44013002B39D1E8
:103A78007B681B689B6B03F44013002B06D07B68A4
:103A88001B689B6803F48063002B2BD17B681B6841
:103A98005B6803F48063002B24D17B681B689B68F8
:103AA80003F04053002B1DD17B689B69002B19D173
:103AB8007B681B687A681268526822F080025A6034
:103AC8007B681B6C23F480527B681A647B681B6CD0
:103AD80003F48073002B05D17B681B6C43F0010253
:103AE8007B681A647868FEF74AFC7B681B686FF08D
:103AF8000C021A607B681B681B6803F00103012B2A
:103B08000CBF01230023DBB2FB607B681B685B688A
:103B180003F04003402B0CBF01230023DBB2BB6042
:103B2800FB68002B17D0BB68002B14D07B681B6880
:103B38001B6803F00103012B0DD17B681B6C43F458
:103B480080327B681A64786800F046F87B681B68E6
:103B58006FF001021A607B681B681B6803F0200382
:103B6800202B0CBF01230023DBB2FB607B681B68A2
:103B78005B6803F08063B3F1806F0CBF01230023FF
:103B8800DBB2BB60FB68002B15D0BB68002B12D0E2
:103B98007B685B6C43F002027B685A647B681B6835
:103BA8006FF020021A60786800F020F87B681B68C4
:103BB8006FF020021A6000BF1037BD4680BD80B488
:103BC80083B000AF78607B681B68DB6C18460C37E5
:103BD800BD465DF8047B704780B483B000AF786061
:103BE80000BF0C37BD465DF8047B704780B483B0D6
:103BF80000AF786000BF0C37BD465DF8047B7047A6
:103C080090B484B000AF786039600023BB607B68F3
:103C180093F83C30012B01D1022307E17B68012294
:103C280083F83C203B681B68092B26D97B681A68F7
:103C38007B681B68D9683B681B689BB218460346BB
:103C48005B0003441E3B072000FA03F3DB430B40F1
:103C5800D3607B681A687B681B68D9683B6898687A
:103C68003B681B689BB21C4623465B0023441E3BF3
:103C780000FA03F30B43D36023E07B681A687B6880
:103C88001B6819693B681B689BB2184603465B00B2
:103C98000344072000FA03F3DB430B4013617B68FE
:103CA8001A687B681B6819693B6898683B681B68D9
:103CB8009BB21C4623465B00234400FA03F30B43E4
:103CC80013613B685B68062B24D87B6819687B689E
:103CD8001B68586B3B685A6813469B001344053BA6
:103CE8001F2202FA03F3DB4303404B637B68196826
:103CF8007B681B68586B3B681B689BB21C463B681B
:103D08005A6813469B001344053B04FA03F3034324
:103D18004B634CE03B685B680C2B24D87B681968C4
:103D28007B681B68186B3B685A6813469B001344F2
:103D3800233B1F2202FA03F3DB4303400B637B6838
:103D480019687B681B68186B3B681B689BB21C462C
:103D58003B685A6813469B001344233B04FA03F359
:103D680003430B6323E07B6819687B681B68D86A88
:103D78003B685A6813469B001344413B1F2202FAD2
:103D880003F3DB430340CB627B6819687B681B68DD
:103D9800D86A3B681B689BB21C463B685A68134646
:103DA8009B001344413B04FA03F30343CB62224BC9
:103DB800FB607B681B68214A934209D13B681B68FA
:103DC800122B05D1FB685B6843F48002FB685A60DC
:103DD8007B681B68194A934223D13B681B68102BE8
:103DE80003D03B681B68112B1BD1FB685B6843F44D
:103DF8000002FB685A603B681B68102B11D1104BFE
:103E08001B68104AA2FB03239A0C13469B00134419
:103E18005B00BB6002E0BB68013BBB60BB68002B7A
:103E2800F9D17B68002283F83C200023184610371C
:103E3800BD4690BC704700BF0023014000200140F0
:103E48000000002083DE1B4380B485B000AF78609B
:103E5800784BFB60FB685B6823F44032FB685A6070
:103E6800FB685A687B685B681A43FB685A607B6822
:103E78001B687A681268526822F480725A607B68FC
:103E88001B687A68126851687A68126912020A43D4
:103E98005A607B681B687A681268526822F0407220
:103EA8005A607B681B687A68126851687A689268F9
:103EB8000A435A607B681B687A681268926822F421
:103EC80000629A607B681B687A68126891687A68F1
:103ED800D2680A439A607B689B6A574A934222D009
:103EE8007B681B687A681268926822F070629A6030
:103EF8007B681B687A68126891687A68926A0A43D4
:103F08009A607B681B687A681268926822F040524F
:103F18009A607B681B687A68126891687A68D26AC6
:103F28000A439A600FE07B681B687A681268926897
:103F380022F070629A607B681B687A6812689268DF
:103F480022F040529A607B681B687A68126892680F
:103F580022F002029A607B681B687A68126891688E
:103F68007A68926952000A439A607B681B6A002B40
:103F78001BD07B681B687A681268526842F400623A
:103F88005A607B681B687A681268526822F460423B
:103F98005A607B681B687A68126851687A68526A46
:103FA800013A52030A435A6007E07B681B687A6843
:103FB8001268526822F400625A607B681B687A684B
:103FC8001268D26A22F47002DA627B681B687A6827
:103FD8001268D16A7A68D269013A12050A43DA622C
:103FE8007B681B687A681268926822F400729A608B
:103FF8007B681B687A68126891687A68126B52024B
:104008000A439A607B681B687A681268926822F48F
:1040180080629A607B681B687A68126891687A681F
:10402800526992020A439A6000BF1437BD465DF890
:10403800047B7047002301400100000FDFF834D0F3
:10404800002103E00C4B5B58435004310B480C4BE8
:1040580042189A42F6D30B4A02E0002342F8043B86
:10406800094B9A42F9D3FCF773FF00F011F8FCF7FB
:1040780015FC70470000022048410008000000209D
:104088001C0000201C000020B4020020FEE70000F5
:1040980070B50D4E0D4CA41BA4100025A54209D1E6
:1040A8000B4E0C4C00F018F8A41BA4100025A542D8
:1040B80005D170BD56F8253098470135EEE756F81A
:1040C800253098470135F2E7404100084041000893
:1040D8004041000844410008F8B500BFF8BC08BCDE
:1040E8009E467047F8B500BFF8BC08BC9E467047AE
:1040F8007368772C303037322C30303030303030F5
:104108003030303030303030303030005372632F40
:104118006D61696E2E630000000000000000000061
:104128000102030406070809000000000102030455
:08413800ECC0FF7F0100000054
:04414000AD010008C5
:0441440089010008E5
:104148000024F4000100000001000000010000004C
:0C415800010000000119191919010100F3
:04000005080040456A
:00000001FF
